:0200000049298C
:10000600423083120313FD00FD0B07280000080091
:0A00160000000000000000000800D8
:100020001D3083120313FC009130FD00FD0B1628D8
:06003000FC0B162808007D
:1000360083120313E61B2128861322288617661BC4
:100046002628061327280617E61A2B2886122C2898
:100056008616661A302806123128061660183528C4
:1000660006153628061186150B208611E6193D2839
:1000760086133E2886176619422806134328061754
:10008600E618472886124828861666184C2806124F
:100096004D28061660185128061552280611861591
:1000A6000B208611601C592810205A2803200800AE
:0E00B600831203135A088A00590882000800BA
:0E00C4001D3083120313FD00FD0B662808009B
:1000D2008312031360106508E6001B2060140800F9
:1000E2008328803083120313E1009628C030E10098
:1000F20096289430E1009628D430E100962880308A
:10010200E1009628831203136108013A0319722849
:100112006108023A031977286108033A03197A2819
:100122006108043A03197D2880286203F0006108FF
:10013200F0077008E1007008E6001B206010E4017F
:1001420064086307840000080319AF286408630782
:1001520084000008E5006920E40AA1286014080070
:1001620083160313861106110612861206138613CE
:1001720083128611061186130613861206121020A8
:10018200102010208616061686150B2086111020C8
:1001920086150B208611102086150B208611102043
:1001A200061286150B208611102086150B2086114B
:1001B2008612861786150B208611102086130616C6
:1001C20086150B208611061286150B20861110202B
:1001D20086150B208611061686150B208611102017
:1001E200061286150B208611861706178616061626
:0C01F20086150B208611102060140800F8
:1001FE00831203139F01C0309F044A09F000700858
:10020E0083169F051F179F1783126108F000F00DCC
:10021E007010F00D7010F00D701070089F041F1408
:10022E0062201F151F1D1D29000019291F101E08F1
:10023E00F100F00183161E08F0040030F1040800EE
:10024E00FF3083120313DB00FF30DC00FF30DD00D4
:10025E00FF309F01C0309F044A09F00070088316DA
:0C026E009F051F179F1783121F14080024
:10027A005B208A110A128000840AD90A0319DA0A51
:08028A00F003031D3D290800EB
:10029200E2212721B1200130E6001B200C30E600CC
:1002A2001B200130E1000130E2002030E300712028
:1002B2000230E1000130E2004B30E30071201530E2
:1002C200FB004B30FC00BE30FD00FD0B6629FC0B31
:1002D2006629FB0B662900000130E6001B20E101C4
:1002E200FF2070088312DE007108DF008030013ABF
:1002F200F200803071067202031D812970082C3CC5
:1003020003188B290130E1000130E2003C30E300A8
:10031200712092290130E1000130E2002B30E3002C
:1003220071201530FB004B30FC00BE30FD00FD0B90
:100332009829FC0B9829FB0B982900000130E60054
:060342001B207029A32915
:1003C40020308400393083120313F000A930D9009F
:0803D4000130DA003D210800B0
:10035200203420342034203443345334453433346D
:0603620033343134003495
:100368004E346F3420346734613473342034643449
:1003780065347434653463347434653464342134D6
:0203880000343F
:10038A0047346134733420346434653474346534E6
:0C039A006334743465346434213400345E
:0203A6000F3412
:1003A80047346134733420344434653474346534E8
:0C03B800633474346F3472342034003429
:02400E004A2F37
:00000001FF
